:100000000C9434000C943E000C943E000C943E0082
:100010000C943E000C943E000C943E000C943E0068
:100020000C943E000C943E000C943E000C943E0058
:100030000C943E000C943E000C943E000C943E0048
:100040000C943E000C943E000C943E000C943E0038
:100050000C943E000C943E000C943E000C943E0028
:100060000C943E000C943E0011241FBECFEFD8E04C
:10007000DEBFCDBF0E945F000C9493000C94000083
:1000800080E090E00000019623E0883E9207D1F7DF
:10009000089549990AC0000085B1813019F4000023
:1000A00080E80BC085B1869508C085B1803819F409
:1000B000000081E002C085B1880F85B908951F93C3
:1000C00084B18FEF84B98AB18C6F8AB98BB18360A8
:1000D0008BB980E185B920E030E040E050E089B1A3
:1000E000182F20FF07C080FD05C00E94490040E096
:1000F00050E00DC020FD0BC010FD09C04B3F510565
:1001000024F00E94490040E050E04F5F5F4F80E0E4
:1001100090E00000019623E0883E9207D1F7812FFE
:0A01200090E09C01DCCFF894FFCFC3
:00000001FF
