:100000000C9434000C9451000C9451000C94510049
:100010000C9451000C9451000C9451000C94470422
:100020000C9451000C9451000C9451000C948103D9
:100030000C9451000C9451000C9451000C945100FC
:100040000C9451000C9451000C9451000C945100EC
:100050000C9451000C9451000C9451000C945100DC
:100060000C9451000C94510011241FBECFEFD8E026
:10007000DEBFCDBF11E0A0E0B1E0E4E0FAE002C0F5
:1000800005900D92A830B107D9F711E0A8E0B1E0D2
:1000900001C01D92A135B107E1F70E9457020C94EF
:1000A00000050C940000882319F4109208010895AB
:1000B00080E8809308010895982F92959F70282FCB
:1000C0002F7080910801882311F09068206895B9FD
:1000D00095B9892F806485B985B995B995B925B940
:1000E00025B9822F806485B985B925B925B915B898
:1000F0008AE68A95F1F70895482F42954F70942F1C
:100100009061382F3F70232F206180910801882350
:1001100021F0942F9069232F206995B995B9892FE3
:10012000806485B985B995B995B925B925B9822F66
:10013000806485B985B925B925B915B885E88A954A
:10014000F1F70895FC013081332321F180910801FA
:10015000882309F145E8232F2F70832F82958F7014
:10016000982F9069322F306995B995B9806D85B90E
:1001700085B995B995B935B935B9206D25B925B980
:1001800035B935B915B8842F8A95F1F73196308194
:10019000332309F7089545E8832F82958F70982FB0
:1001A0009061232F2F70322F306195B995B98065FA
:1001B00085B985B995B995B935B935B9206525B9E8
:1001C00025B935B935B915B8842F8A95F1F7319627
:1001D0003081332309F7089540910801442399F1B0
:1001E00090E821E880EC31EC95B995B985B985B9ED
:1001F00095B995B925B925B935B935B925B925B90F
:1002000015B88AE68A95F1F780EA9FE00197F1F741
:100210004423F1F090E822E880EC32EC95B995B9EE
:1002200085B985B995B995B925B925B935B935B91E
:1002300025B925B915B88AE68A95F1F780EA9FE0D5
:100240000197F1F7089590E021E080E431E4CCCF0C
:1002500090E022E080E432E4E1CF813029F190ECBB
:10026000862F81508F70892B982F92959F70682FC1
:100270006F7080910801882311F09068606895B9CB
:1002800095B9892F806485B985B995B995B965B94E
:1002900065B9862F806485B985B965B965B915B822
:1002A0008AE68A95F1F7089590E8DACF409108013F
:1002B000942F926095B995B9842F826485B985B9D8
:1002C00095B995B915B885E88A95F1F7442309F4ED
:1002D00078C092E828E882EC38EC95B995B985B9F0
:1002E00085B995B995B925B925B935B935B925B9BE
:1002F00025B915B88AE68A95F1F7442309F475C043
:1003000090E826E880EC36EC95B995B985B985B9C1
:1003100095B995B925B925B935B935B925B925B9ED
:1003200015B88AE68A95F1F7442309F459C090E894
:100330002CE880EC3CEC95B995B985B985B995B9AF
:1003400095B925B925B935B935B925B925B915B83E
:100350008AE68A95F1F7442309F43DC090E821E844
:1003600080EC31EC95B995B985B985B995B995B950
:1003700025B925B935B935B925B925B915B88AE6EC
:100380008A95F1F780EA9FE00197F1F74423F1F0B5
:1003900090E822E880EC32EC95B995B985B985B939
:1003A00095B995B925B925B935B935B925B925B95D
:1003B00015B88AE68A95F1F780EA9FE00197F1F790
:1003C000089592E028E082E438E487CF90E022E0CC
:1003D00080E432E4E1CF90E021E080E431E4C2CF78
:1003E00090E02CE080E43CE4A6CF90E026E080E4BE
:1003F00036E48ACF30910901332341F1E0910601BF
:10040000F09107012081922F92959F7027FF9061B4
:1004100095B9892F806485B995B9892F807F2F7010
:10042000822B85B9982F906495B985B915B88091BC
:100430000501815080930501882349F03196F0939E
:100440000701E0930601315030930901089580E3DC
:1004500091E0909307018093060180E2809305016B
:10046000F2CF982F809109018032B0F4E09103011E
:10047000F0910401908380910201815080930201E8
:10048000882359F03196F0930401E09303018091A1
:1004900009018F5F80930901089580E391E09093B3
:1004A00004018093030180E280930201F0CFCF9298
:1004B000DF92EF92FF920F931F93CF93DF9384B15C
:1004C0008FEF84B98BB183608BB98AB18C6F8AB995
:1004D0000E9456010E94EC0080E280937C0086E836
:1004E00080937A0017BC83E884BD81E085BD1092BB
:1004F0006E0088EE93E090938900809388001092BC
:1005000080008AE08093810092E090936F0016BC97
:10051000109285001092840082E38093B300909340
:10052000B0009093B100CAE0D1E040910101CE014A
:1005300060E071E050E00E94A40482E061E00E946B
:100540002D01CE010E94A20078944091010190916A
:100550001D0130E3E32E31E0F32E11E002E020E252
:10056000C22E80ECD82E892F90931C0199B19093C4
:100570001D01489953C080FF51C04230A0F3415043
:1005800040930101109350018AE091E060E071E036
:1005900050E00E94A404809109018032C0F4E091EF
:1005A0000301F0910401D082809102018150809377
:1005B0000201882309F099C0F0920401E09203013E
:1005C000C0920201809109018F5F80930901D0934D
:1005D0001B01C0931A0190910A01992309F47CC070
:1005E00020910201A0910301B0910401FE01319616
:1005F0000EC020E2A0E3B1E0809109018F5F8093FB
:1006000009013E2F4F2F9191992309F45BC080324D
:10061000C0F79C93215069F31196EECF4999A3CF6F
:1006200081FFA1CF4B3008F09ECF4F5F4093010177
:10063000109350018AE091E060E071E050E00E9488
:10064000A404809109018032C0F4E0910301F0918B
:100650000401D0828091020181508093020188239D
:1006600009F049C0F0920401E0920301C092020136
:10067000809109018F5F80930901D0931B01C09382
:100680001A0190910A01992339F120910201A09158
:100690000301B0910401FE0131960DC020E2A0E3F8
:1006A000B1E0809109018F5F809309013E2F4F2FA8
:1006B0009191992339F08032C8F79C93215071F3BE
:1006C0001196EFCF20930201B0930401A093030190
:1006D00030931A0140931B01109250010093700057
:1006E0004091010190911D013ECF3196F09304019C
:1006F000E093030167CF3196F0930401E093030187
:10070000B7CF1F920F920FB60F9211242F933F93E2
:100710004F935F936F937F938F939F93AF93BF9309
:10072000CF93DF93EF93FF935C9A80917A0080647C
:1007300080937A0080917A0086FDFCCF80915001F1
:10074000882309F441C020910101422F50E020FF8D
:1007500021C08091790090E04150504055954795D7
:1007600002C0959587954A95E2F787BD5C98FF9101
:10077000EF91DF91CF91BF91AF919F918F917F9139
:100780006F915F914F913F912F910F900FBE0F90FE
:100790001F90189540917900269530E0809179005E
:1007A00090E02F5F3F4F022E02C0959587950A94E7
:1007B000E2F72150304050E002C0559547952A9508
:1007C000E2F7840F87BDD2CF40917900C0E2D1E03B
:1007D000CE0160E071E050E00E94A4049091090114
:1007E0009032E0F4E0910301F091040180E880830D
:1007F00080910201815080930201882309F041C059
:1008000080E391E0909304018093030180E2809360
:100810000201909109019F5F90930901D0931F01FC
:10082000C0931E0180912001882339F1209102019B
:10083000A0910301B0910401FE0131960DC020E2A8
:10084000A0E3B1E0909109019F5F909309013E2FD1
:100850004F2F8191882339F09032C8F78C93215023
:1008600071F31196EFCF20930201B0930401A0938E
:10087000030130931E0140931F0182E080937000BA
:1008800062CF3196F0930401E0930301C2CF1F922F
:100890000F920FB60F9211242F933F938F939F9334
:1008A000EF93FF935D9A80915001882361F05D98EA
:1008B000FF91EF919F918F913F912F910F900FBEDC
:1008C0000F901F901895309109013323A1F1E09109
:1008D0000601F09107012081922F92959F7027FFCA
:1008E000906195B9892F806485B995B9892F807FEA
:1008F0002F70822B85B9982F906495B985B915B85A
:10090000809105018150809305018823B9F480E32B
:1009100091E0909307018093060180E280930501A6
:10092000832F815080930901882329F01092B2000F
:1009300082E087BBBCCF10927000B9CF3196F093A4
:100940000701E0930601ECCFFB015081552309F428
:1009500049C0DC015D93319650815523D9F7443667
:1009600078F480E28C9320E0FD0131964A30D0F497
:10097000222391F580E28083405D418312820895B5
:10098000842F64E60E94F404282F205D2C932053CA
:100990008CE99FEF289F802D1124480FFD0131968F
:1009A0004A3030F3842F6AE00E94F404805D11968F
:1009B0008C938053282F30E0C901880F991F880F2E
:1009C000991F880F991F220F331F820F931F481BF7
:1009D000405D41831282089580E38083405D4183BE
:1009E00012820895DC01BBCF991B79E004C0991FE6
:1009F000961708F0961B881F7A95C9F78095089579
:040A0000F894FFCF98
:080A0400000120300120300147
:00000001FF
