:100000000C9434000C9451000C9451000C94510049
:100010000C9451000C9451000C9451000C940D055B
:100020000C9451000C9451000C9451000C94490410
:100030000C9451000C9451000C9451000C945100FC
:100040000C9451000C9451000C943C030C9402034A
:100050000C9451000C9451000C9451000C945100DC
:100060000C9451000C94510011241FBECFEFD8E026
:10007000DEBFCDBF11E0A0E0B1E0E2E9FBE002C0ED
:1000800005900D92AE30B107D9F711E0AEE0B1E0C6
:1000900001C01D92A737B107E1F70E94A4020C949A
:1000A000C7050C940000882319F410920E010895DE
:1000B00080E880930E010895982F92959F70282FC5
:1000C0002F7080910E01882311F09068206895B9F7
:1000D00095B9892F806485B985B995B995B925B940
:1000E00025B9822F806485B985B925B925B915B898
:1000F0008AE68A95F1F70895482F42954F70942F1C
:100100009061382F3F70232F206180910E0188234A
:1001100021F0942F9069232F206995B995B9892FE3
:10012000806485B985B995B995B925B925B9822F66
:10013000806485B985B925B925B915B885E88A954A
:10014000F1F70895FC013081332321F180910E01F4
:10015000882309F145E8232F2F70832F82958F7014
:10016000982F9069322F306995B995B9806D85B90E
:1001700085B995B995B935B935B9206D25B925B980
:1001800035B935B915B8842F8A95F1F73196308194
:10019000332309F7089545E8832F82958F70982FB0
:1001A0009061232F2F70322F306195B995B98065FA
:1001B00085B985B995B995B935B935B9206525B9E8
:1001C00025B935B935B915B8842F8A95F1F7319627
:1001D0003081332309F7089540910E01442399F1AA
:1001E00090E821E880EC31EC95B995B985B985B9ED
:1001F00095B995B925B925B935B935B925B925B90F
:1002000015B88AE68A95F1F780EA9FE00197F1F741
:100210004423F1F090E822E880EC32EC95B995B9EE
:1002200085B985B995B995B925B925B935B935B91E
:1002300025B925B915B88AE68A95F1F780EA9FE0D5
:100240000197F1F7089590E021E080E431E4CCCF0C
:1002500090E022E080E432E4E1CF813029F190ECBB
:10026000862F81508F70892B982F92959F70682FC1
:100270006F7080910E01882311F09068606895B9C5
:1002800095B9892F806485B985B995B995B965B94E
:1002900065B9862F806485B985B965B965B915B822
:1002A0008AE68A95F1F7089590E8DACF40910E0139
:1002B000942F926095B995B9842F826485B985B9D8
:1002C00095B995B915B885E88A95F1F7442309F4ED
:1002D00078C092E828E882EC38EC95B995B985B9F0
:1002E00085B995B995B925B925B935B935B925B9BE
:1002F00025B915B88AE68A95F1F7442309F475C043
:1003000090E826E880EC36EC95B995B985B985B9C1
:1003100095B995B925B925B935B935B925B925B9ED
:1003200015B88AE68A95F1F7442309F459C090E894
:100330002CE880EC3CEC95B995B985B985B995B9AF
:1003400095B925B925B935B935B925B925B915B83E
:100350008AE68A95F1F7442309F43DC090E821E844
:1003600080EC31EC95B995B985B985B995B995B950
:1003700025B925B935B935B925B925B915B88AE6EC
:100380008A95F1F780EA9FE00197F1F74423F1F0B5
:1003900090E822E880EC32EC95B995B985B985B939
:1003A00095B995B925B925B935B935B925B925B95D
:1003B00015B88AE68A95F1F780EA9FE00197F1F790
:1003C000089592E028E082E438E487CF90E022E0CC
:1003D00080E432E4E1CF90E021E080E431E4C2CF78
:1003E00090E02CE080E43CE4A6CF90E026E080E4BE
:1003F00036E48ACF5C9A30910F01332341F1E091CA
:100400000C01F0910D012081922F92959F7027FF92
:10041000906195B9892F806485B995B9892F807FBE
:100420002F70822B85B9982F906495B985B915B82E
:1004300080910B01815080930B01882351F03196FC
:10044000F0930D01E0930C01315030930F015C9853
:10045000089586E391E090930D0180930C0180E272
:1004600080930B01F1CF982F80910F018032B0F46F
:10047000E0910901F0910A01908380910801815077
:1004800080930801882359F03196F0930A01E09394
:10049000090180910F018F5F80930F01089586E31A
:1004A00091E090930A018093090180E28093080112
:1004B000F0CF982F809110018032B0F4E0910601C6
:1004C000F09107019083809105018150809305018F
:1004D000882359F03196F0930701E093060180914B
:1004E00010018F5F80931001089587E591E090934C
:1004F00007018093060180E280930501F0CF2091EF
:1005000010012223B1F0E0910301F09104018081F8
:100510008093C6008091020181508093020188235C
:1005200049F03196F0930401E093030121502093A8
:100530001001089587E591E09093040180930301F1
:1005400080E280930201F2CF0F931F93DF93CF934A
:10055000CDB7DEB760970FB6F894DEBF0FBECDBF44
:1005600084B18FEF84B997B187B98AB18C6F8AB99A
:100570000E9456010E94EC00409101018E010F5F24
:100580001F4FC80160E071E050E00E946B0582E0FF
:1005900061E00E942D01C8010E94A20080E28093C8
:1005A0007C0086E880937A0017BC83E884BD81E0F4
:1005B00085BD10926E0080E197E290938900809350
:1005C0008800109280008AE08093810082E080930E
:1005D0006F0016BC10928500109284008093B000CA
:1005E0008093B10083E390E09093C5008093C400B2
:1005F0001092C00088E98093C10086E08093C20019
:100600007894FFCF1F920F920FB60F9211242F9361
:100610008F939F93EF93FF935D9A20911001222374
:10062000B1F0E0910301F091040180818093C60054
:1006300080910201815080930201882399F03196C4
:10064000F0930401E09303012150209310015D9881
:10065000FF91EF919F918F912F910F900FBE0F906F
:100660001F90189587E591E0909304018093030112
:1006700080E280930201E8CF1F920F920FB60F9293
:1006800011242F933F934F935F936F937F938F9397
:100690009F93AF93BF93CF93DF93EF93FF9380919B
:1006A000C60080931101992787FD90958F7D9070EA
:1006B0008434910509F4CCC08535910509F44CC00A
:1006C000C2E1D1E088E78093C1009091100190329F
:1006D000E0F4E0910601F09107018DE080838091C4
:1006E0000501815080930501882309F0BCC087E58E
:1006F00091E0909307018093060180E280930501C9
:10070000909110019F5F90931001D0932301C093AB
:10071000220180911201882309F478C020910501FB
:10072000A0910601B0910701FE0131960EC020E2B2
:10073000A7E5B1E0909110019F5F909310013E2FCB
:100740004F2F8191882309F457C09032C0F78C93C2
:10075000215069F31196EECF409101014B3008F41E
:1007600092C081E080935601C2E1D1E0CE0160E009
:1007700071E050E00E946B0580910F018032C0F45F
:10078000E0910901F0910A0180EC808380910801D9
:10079000815080930801882309F46BC03196F0934F
:1007A0000A01E093090180910F018F5F80930F018F
:1007B000D0932301C093220190911201992309F44F
:1007C00041C020910801E0910901F0910A01DE0188
:1007D00011960BC020E2E6E3F1E080910F018F5FFC
:1007E00080930F019D91992339F18032D8F790833E
:1007F000215081F33196F1CF20930501B093070189
:10080000A0930601309322014093230188E980934D
:10081000C100FF91EF91DF91CF91BF91AF919F9177
:100820008F917F916F915F914F913F912F910F9099
:100830000FBE0F901F90189520930801F0930A01A6
:10084000E09309011092560182E0809370003ACF44
:1008500040910101423008F484CF842F815080936D
:100860000101482F7ECF3196F0930701E0930601F6
:1008700047CF86E391E090930A018093090180E2DB
:100880008093080190CF842F8F5F80930101482FC0
:1008900068CF1F920F920FB60F9211242F933F93A0
:1008A0004F935F936F937F938F939F93AF93BF9378
:1008B000CF93DF93EF93FF9380917A0080648093CE
:1008C0007A0080917A0086FDFCCF809156018823C2
:1008D00009F440C020910101422F50E020FF20C0C8
:1008E0008091790090E0415050405595479502C065
:1008F000959587954A95E2F787BDFF91EF91DF9136
:10090000CF91BF91AF919F918F917F916F915F91A7
:100910004F913F912F910F900FBE0F901F90189500
:1009200040917900269530E08091790090E02F5F2A
:100930003F4F022E02C0959587950A94E2F7215009
:10094000304050E002C0559547952A95E2F7840F54
:1009500087BDD3CF40917900C6E2D1E0CE0160E0FF
:1009600071E050E00E946B0590910F019032E0F42D
:10097000E0910901F0910A0180E8808380910801EB
:10098000815080930801882309F041C086E391E0FB
:1009900090930A018093090180E28093080190916D
:1009A0000F019F5F90930F01D0932501C093240105
:1009B00080912601882339F120910801A091090135
:1009C000B0910A01FE0131960DC020E2A6E3B1E02C
:1009D00090910F019F5F90930F013E2F4F2F8191B8
:1009E000882339F09032C8F78C93215071F3119617
:1009F000EFCF20930801B0930A01A093090130932F
:100A000024014093250182E08093700063CF3196EA
:100A1000F0930A01E0930901C2CF1F920F920FB623
:100A20000F9211242F933F938F939F93EF93FF93F4
:100A300080915601882359F0FF91EF919F918F91FA
:100A40003F912F910F900FBE0F901F9018955C9AB9
:100A500030910F013323A9F1E0910C01F0910D01C8
:100A60002081922F92959F7027FF906195B9892FD1
:100A7000806485B995B9892F807F2F70822B85B9C5
:100A8000982F906495B985B915B880910B01815064
:100A900080930B018823C9F486E391E090930D01C4
:100AA00080930C0180E280930B01832F815080930F
:100AB0000F015C98882331F01092B20082E087BB6E
:100AC000BBCF5C9810927000B7CF3196F0930D01B8
:100AD000E0930C01EACFFB015081552309F449C092
:100AE000DC015D93319650815523D9F7443678F473
:100AF00080E28C9320E0FD0131964A30D0F422232D
:100B000091F580E28083405D418312820895842FB5
:100B100064E60E94BB05282F205D2C9320538CE9AE
:100B20009FEF289F802D1124480FFD0131964A30F8
:100B300030F3842F6AE00E94BB05805D11968C9390
:100B40008053282F30E0C901880F991F880F991F03
:100B5000880F991F220F331F820F931F481B405D80
:100B600041831282089580E38083405D4183128235
:100B70000895DC01BBCF991B79E004C0991F96173B
:100B800008F0961B881F7A95C9F780950895F89408
:020B9000FFCF95
:0E0B92000001205701205701203601203601B6
:00000001FF
