:100000000C9434000C9451000C9451000C94510049
:100010000C9451000C9451000C9451000C9451001C
:100020000C9451000C9451000C9451000C94FA0162
:100030000C9451000C9451000C9451000C945100FC
:100040000C9451000C9451000C9451000C945100EC
:100050000C9451000C9451000C9451000C945100DC
:100060000C9451000C94510011241FBECFEFD8E026
:10007000DEBFCDBF11E0A0E0B1E0E2E2F6E002C0F9
:1000800005900D92A230B107D9F711E0A2E0B1E0DE
:1000900001C01D92A531B107E1F70E946B020C94DB
:1000A0000F030C940000882319F4109202010895A4
:1000B00080E8809302010895982F92959F70282FD1
:1000C0002F7080910201882311F09068206895B903
:1000D00095B9892F806485B985B995B995B925B940
:1000E00025B9822F806485B985B925B925B915B898
:1000F0008AE68A95F1F70895482F42954F70942F1C
:100100009061382F3F70232F206180910201882356
:1001100021F0942F9069232F206995B995B9892FE3
:10012000806485B985B995B995B925B925B9822F66
:10013000806485B985B925B925B915B885E88A954A
:10014000F1F70895FC013081332321F18091020100
:10015000882309F145E8232F2F70832F82958F7014
:10016000982F9069322F306995B995B9806D85B90E
:1001700085B995B995B935B935B9206D25B925B980
:1001800035B935B915B8842F8A95F1F73196308194
:10019000332309F7089545E8832F82958F70982FB0
:1001A0009061232F2F70322F306195B995B98065FA
:1001B00085B985B995B995B935B935B9206525B9E8
:1001C00025B935B935B915B8842F8A95F1F7319627
:1001D0003081332309F7089540910201442399F1B6
:1001E00090E821E880EC31EC95B995B985B985B9ED
:1001F00095B995B925B925B935B935B925B925B90F
:1002000015B88AE68A95F1F780EA9FE00197F1F741
:100210004423F1F090E822E880EC32EC95B995B9EE
:1002200085B985B995B995B925B925B935B935B91E
:1002300025B925B915B88AE68A95F1F780EA9FE0D5
:100240000197F1F7089590E021E080E431E4CCCF0C
:1002500090E022E080E432E4E1CF813029F190ECBB
:10026000862F81508F70892B982F92959F70682FC1
:100270006F7080910201882311F09068606895B9D1
:1002800095B9892F806485B985B995B995B965B94E
:1002900065B9862F806485B985B965B965B915B822
:1002A0008AE68A95F1F7089590E8DACF4091020145
:1002B000942F926095B995B9842F826485B985B9D8
:1002C00095B995B915B885E88A95F1F7442309F4ED
:1002D00078C092E828E882EC38EC95B995B985B9F0
:1002E00085B995B995B925B925B935B935B925B9BE
:1002F00025B915B88AE68A95F1F7442309F475C043
:1003000090E826E880EC36EC95B995B985B985B9C1
:1003100095B995B925B925B935B935B925B925B9ED
:1003200015B88AE68A95F1F7442309F459C090E894
:100330002CE880EC3CEC95B995B985B985B995B9AF
:1003400095B925B925B935B935B925B925B915B83E
:100350008AE68A95F1F7442309F43DC090E821E844
:1003600080EC31EC95B995B985B985B995B995B950
:1003700025B925B935B935B925B925B915B88AE6EC
:100380008A95F1F780EA9FE00197F1F74423F1F0B5
:1003900090E822E880EC32EC95B995B985B985B939
:1003A00095B995B925B925B935B935B925B925B95D
:1003B00015B88AE68A95F1F780EA9FE00197F1F790
:1003C000089592E028E082E438E487CF90E022E0CC
:1003D00080E432E4E1CF90E021E080E431E4C2CF78
:1003E00090E02CE080E43CE4A6CF90E026E080E4BE
:1003F00036E48ACF1F920F920FB60F9211242F93DB
:100400003F934F935F936F937F938F939F93AF939C
:10041000BF93EF93FF9380917A00806480937A007A
:100420005C9A80917A0086FDFCCF5C9890910401E3
:100430009093030189B180930401489902C090FD13
:1004400040C049990CC091FF0AC02091010126309B
:1004500040F4822F8F5F80930101282F02C02091EA
:1004600001018091790090E030E02150304002C0DD
:10047000959587952A95E2F787BD4091790085E0AB
:1004800091E060E071E050E00E94B3025D9A81E08B
:1004900061E00E942D0185E091E00E94A2005D983C
:1004A000FF91EF91BF91AF919F918F917F916F914C
:1004B0005F914F913F912F910F900FBE0F901F9022
:1004C000189520910101223060F2822F8150809393
:1004D0000101282FC6CF84B18FEF84B98AB18C6F08
:1004E0008AB98BB183608BB987B18C6F87B98091E2
:1004F00064008E7F8093640081E280937C0086E8B4
:1005000080937A0010927B0080917E0083608093BC
:100510007E00809164008F7D8093640080916400F0
:10052000877F8093640016BC10928500109284002F
:1005300017BC88EE93E0909389008093880083E84D
:1005400084BD81E085BD109280008AE080938100A7
:1005500010926E0082E080936F000E9456010E940C
:10056000EC007894FFCFFB015081552309F449C07A
:10057000DC015D93319650815523D9F7443678F4E8
:1005800080E28C9320E0FD0131964A30D0F42223A2
:1005900091F580E28083405D418312820895842F2B
:1005A00064E60E940303282F205D2C9320538CE9DE
:1005B0009FEF289F802D1124480FFD0131964A306E
:1005C00030F3842F6AE00E940303805D11968C93C0
:1005D0008053282F30E0C901880F991F880F991F79
:1005E000880F991F220F331F820F931F481B405DF6
:1005F00041831282089580E38083405D41831282AB
:100600000895DC01BBCF991B79E004C0991F9617B0
:1006100008F0961B881F7A95C9F780950895F8947D
:02062000FFCF0A
:020622000001D5
:00000001FF
