:100000000C9434000C9451000C9451000C94510049
:100010000C9451000C9451000C9451000C9451001C
:100020000C9451000C9451000C9451000C9451000C
:100030000C9451000C9451000C9451000C945100FC
:100040000C9451000C9451000C9451000C945100EC
:100050000C9451000C9451000C9451000C945100DC
:100060000C9451000C94510011241FBECFEFD8E026
:10007000DEBFCDBF11E0A0E0B1E0E2E7F5E002C0F5
:1000800005900D92A830B107D9F711E0A8E0B1E0D2
:1000900001C01D92A930B107E1F70E94FA010C944A
:1000A000B7020C940000882319F4109208010895F7
:1000B00080E8809308010895982F92959F70282FCB
:1000C0002F7080910801882311F09068206895B9FD
:1000D00095B9892F806485B985B995B995B925B940
:1000E00025B9822F806485B985B925B925B915B898
:1000F0008AE68A95F1F70895482F42954F70942F1C
:100100009061382F3F70232F206180910801882350
:1001100021F0942F9069232F206995B995B9892FE3
:10012000806485B985B995B995B925B925B9822F66
:10013000806485B985B925B925B915B885E88A954A
:10014000F1F70895FC013081332321F180910801FA
:10015000882309F145E8232F2F70832F82958F7014
:10016000982F9069322F306995B995B9806D85B90E
:1001700085B995B995B935B935B9206D25B925B980
:1001800035B935B915B8842F8A95F1F73196308194
:10019000332309F7089545E8832F82958F70982FB0
:1001A0009061232F2F70322F306195B995B98065FA
:1001B00085B985B995B995B935B935B9206525B9E8
:1001C00025B935B935B915B8842F8A95F1F7319627
:1001D0003081332309F7089540910801442399F1B0
:1001E00090E821E880EC31EC95B995B985B985B9ED
:1001F00095B995B925B925B935B935B925B925B90F
:1002000015B88AE68A95F1F780EA9FE00197F1F741
:100210004423F1F090E822E880EC32EC95B995B9EE
:1002200085B985B995B995B925B925B935B935B91E
:1002300025B925B915B88AE68A95F1F780EA9FE0D5
:100240000197F1F7089590E021E080E431E4CCCF0C
:1002500090E022E080E432E4E1CF813029F190ECBB
:10026000862F81508F70892B982F92959F70682FC1
:100270006F7080910801882311F09068606895B9CB
:1002800095B9892F806485B985B995B995B965B94E
:1002900065B9862F806485B985B965B965B915B822
:1002A0008AE68A95F1F7089590E8DACF409108013F
:1002B000942F926095B995B9842F826485B985B9D8
:1002C00095B995B915B885E88A95F1F7442309F4ED
:1002D00078C092E828E882EC38EC95B995B985B9F0
:1002E00085B995B995B925B925B935B935B925B9BE
:1002F00025B915B88AE68A95F1F7442309F475C043
:1003000090E826E880EC36EC95B995B985B985B9C1
:1003100095B995B925B925B935B935B925B925B9ED
:1003200015B88AE68A95F1F7442309F459C090E894
:100330002CE880EC3CEC95B995B985B985B995B9AF
:1003400095B925B925B935B935B925B925B915B83E
:100350008AE68A95F1F7442309F43DC090E821E844
:1003600080EC31EC95B995B985B985B995B995B950
:1003700025B925B935B935B925B925B915B88AE6EC
:100380008A95F1F780EA9FE00197F1F74423F1F0B5
:1003900090E822E880EC32EC95B995B985B985B939
:1003A00095B995B925B925B935B935B925B925B95D
:1003B00015B88AE68A95F1F780EA9FE00197F1F790
:1003C000089592E028E082E438E487CF90E022E0CC
:1003D00080E432E4E1CF90E021E080E431E4C2CF78
:1003E00090E02CE080E43CE4A6CF90E026E080E4BE
:1003F00036E48ACFEF92FF920F931F93DF93CF9350
:10040000CDB7DEB760970FB6F894DEBF0FBECDBF95
:1004100084B18FEF84B98AB18C6F8AB98BB1836054
:100420008BB90E9456010E94EC007E010894E11CE9
:10043000F11CC70160E071E00E945B0281E061E0B5
:100440000E942D01C7010E94A20080E094E009B142
:10045000489922C080FF20C000000000923040F187
:100460000000192F1150911719F100005C9AC70173
:1004700067E071E0412F50E00E945B025C985D9A5A
:1004800081E067E00E942D01C7010E94A2005D98F3
:10049000C80109B1489BDECF49990AC081FF08C055
:1004A00000009B3028F40000192F1F5F9117E9F618
:1004B000192FC801EECFFB015081552309F449C023
:1004C000DC015D93319650815523D9F7443678F499
:1004D00080E28C9320E0FD0131964A30D0F4222353
:1004E00091F580E28083405D418312820895842FDC
:1004F00064E60E94AB02282F205D2C9320538CE9E8
:100500009FEF289F802D1124480FFD0131964A301E
:1005100030F3842F6AE00E94AB02805D11968C93C9
:100520008053282F30E0C901880F991F880F991F29
:10053000880F991F220F331F820F931F481B405DA6
:1005400041831282089580E38083405D418312825B
:100550000895DC01BBCF991B79E004C0991F961761
:1005600008F0961B881F7A95C9F780950895F8942E
:02057000FFCFBB
:08057200417474656E3D000048
:00000001FF
