:100000000C9434000C943E000C943E000C943E0082
:100010000C943E000C943E000C943E000C943E0068
:100020000C943E000C943E000C943E000C943E0058
:100030000C943E000C943E000C943E000C943E0048
:100040000C943E000C943E000C943E000C943E0038
:100050000C943E000C943E000C943E000C943E0028
:100060000C943E000C943E0011241FBECFEFD8E04C
:10007000DEBFCDBF0E9491000C94F6000C940000EE
:10008000DF93CF9300D0CDB7DEB71A8219821A82E0
:10009000198206C0000089819A8101969A8389831A
:1000A00089819A8123E0883E9207A4F30F900F90F4
:1000B000CF91DF910895DF93CF93CDB7DEB7E9E21B
:1000C000F0E08081882F90E0827090700097A1F41A
:1000D0000000E5E2F0E08081813031F40000E5E2EB
:1000E000F0E080E880831AC0A5E2B0E0E5E2F0E04D
:1000F000808186958C9312C0E5E2F0E080818038A3
:1001000031F40000E5E2F0E081E0808307C0A5E281
:10011000B0E0E5E2F0E08081880F8C93CF91DF9131
:100120000895DF93CF93CDB7DEB727970FB6F89436
:10013000DEBF0FBECDBFE4E2F0E08081E4E2F0E09C
:100140008FEF8083AAE2B0E0EAE2F0E080818C6F7A
:100150008C93ABE2B0E0EBE2F0E0808183608C93C3
:10016000E5E2F0E080E180831E821D821C821B821A
:100170001A8219828D819E819C838B83E9E2F0E053
:100180008081882F90E09E838D838B819C818170FC
:100190009070982F81E08927882359F48D819E8162
:1001A00081709070009729F40E945B001A82198276
:1001B0001AC08B819C81817090700097A1F48D8111
:1001C0009E8181709070009771F489819A818B3F34
:1001D000910524F00E945B001A82198289819A811C
:1001E00001969A8389830E944000C4CFF894FFCF80
:00000001FF
