:100000000C9434000C9451000C9451000C94510049
:100010000C9451000C9451000C9451000C9451001C
:100020000C9451000C9451000C9451000C9451000C
:100030000C9451000C9451000C9451000C945100FC
:100040000C9451000C9451000C9451000C945100EC
:100050000C9451000C9451000C9451000C945100DC
:100060000C9451000C94510011241FBECFEFD8E026
:10007000DEBFCDBF11E0A0E0B1E0EAEBF5E002C0E9
:1000800005900D92A230B107D9F711E0A2E0B1E0DE
:1000900001C01D92A330B107E1F70E94FA010C9450
:1000A000DB020C940000882319F4109202010895D9
:1000B00080E8809302010895982F92959F70282FD1
:1000C0002F7080910201882311F09068206895B903
:1000D00095B9892F806485B985B995B995B925B940
:1000E00025B9822F806485B985B925B925B915B898
:1000F0008AE68A95F1F70895482F42954F70942F1C
:100100009061382F3F70232F206180910201882356
:1001100021F0942F9069232F206995B995B9892FE3
:10012000806485B985B995B995B925B925B9822F66
:10013000806485B985B925B925B915B885E88A954A
:10014000F1F70895FC013081332321F18091020100
:10015000882309F145E8232F2F70832F82958F7014
:10016000982F9069322F306995B995B9806D85B90E
:1001700085B995B995B935B935B9206D25B925B980
:1001800035B935B915B8842F8A95F1F73196308194
:10019000332309F7089545E8832F82958F70982FB0
:1001A0009061232F2F70322F306195B995B98065FA
:1001B00085B985B995B995B935B935B9206525B9E8
:1001C00025B935B935B915B8842F8A95F1F7319627
:1001D0003081332309F7089540910201442399F1B6
:1001E00090E821E880EC31EC95B995B985B985B9ED
:1001F00095B995B925B925B935B935B925B925B90F
:1002000015B88AE68A95F1F780EA9FE00197F1F741
:100210004423F1F090E822E880EC32EC95B995B9EE
:1002200085B985B995B995B925B925B935B935B91E
:1002300025B925B915B88AE68A95F1F780EA9FE0D5
:100240000197F1F7089590E021E080E431E4CCCF0C
:1002500090E022E080E432E4E1CF813029F190ECBB
:10026000862F81508F70892B982F92959F70682FC1
:100270006F7080910201882311F09068606895B9D1
:1002800095B9892F806485B985B995B995B965B94E
:1002900065B9862F806485B985B965B965B915B822
:1002A0008AE68A95F1F7089590E8DACF4091020145
:1002B000942F926095B995B9842F826485B985B9D8
:1002C00095B995B915B885E88A95F1F7442309F4ED
:1002D00078C092E828E882EC38EC95B995B985B9F0
:1002E00085B995B995B925B925B935B935B925B9BE
:1002F00025B915B88AE68A95F1F7442309F475C043
:1003000090E826E880EC36EC95B995B985B985B9C1
:1003100095B995B925B925B935B935B925B925B9ED
:1003200015B88AE68A95F1F7442309F459C090E894
:100330002CE880EC3CEC95B995B985B985B995B9AF
:1003400095B925B925B935B935B925B925B915B83E
:100350008AE68A95F1F7442309F43DC090E821E844
:1003600080EC31EC95B995B985B985B995B995B950
:1003700025B925B935B935B925B925B915B88AE6EC
:100380008A95F1F780EA9FE00197F1F74423F1F0B5
:1003900090E822E880EC32EC95B995B985B985B939
:1003A00095B995B925B925B935B935B925B925B95D
:1003B00015B88AE68A95F1F780EA9FE00197F1F790
:1003C000089592E028E082E438E487CF90E022E0CC
:1003D00080E432E4E1CF90E021E080E431E4C2CF78
:1003E00090E02CE080E43CE4A6CF90E026E080E4BE
:1003F00036E48ACF9F92AF92BF92CF92DF92EF9274
:10040000FF920F931F93DF93CF93CDB7DEB7609723
:100410000FB6F894DEBF0FBECDBF809164008E7F13
:100420008093640080E280937C0080E180937A0076
:1004300010927B008AB1806F8AB98BB18F608BB9C3
:1004400080917E00836080937E0084B18FEF84B9B9
:100450000E9456010E94EC0001E010E07E01089429
:10046000E11CF11C30E2C32E21E2922E96ECD92E33
:1004700080EDA82E87E0B82E4B9921C090927C0089
:10048000D0927A0080917A00863CE1F34A991AC0B2
:1004900049B148992CC010FF2AC0023008F0015021
:1004A0002091790030E0802F90E0019702C03595CF
:1004B00027958A95E2F725B9142F4B9BDFCFC09281
:1004C0007C00DECF40917900C70160E071E050E030
:1004D0000E947F0281E061E00E942D01C7010E941D
:1004E000A200C5010197F1F7412F142FE6CF4999DA
:1004F000D7CF11FFD5CF063098F60F5FD1CFFB01D4
:100500005081552309F449C0DC015D933196508137
:100510005523D9F7443678F480E28C9320E0FD012E
:1005200031964A30D0F4222391F580E28083405DF9
:10053000418312820895842F64E60E94CF02282FFF
:10054000205D2C9320538CE99FEF289F802D112450
:10055000480FFD0131964A3030F3842F6AE00E9443
:10056000CF02805D11968C938053282F30E0C90113
:10057000880F991F880F991F880F991F220F331F0B
:10058000820F931F481B405D41831282089580E3D0
:100590008083405D418312820895DC01BBCF991BAB
:1005A00079E004C0991F961708F0961B881F7A956A
:0A05B000C9F780950895F894FFCF75
:0205BA0000003F
:00000001FF
