:100000000C9434000C943E000C943E000C943E0082
:100010000C943E000C943E000C943E000C943E0068
:100020000C943E000C943E000C943E000C943E0058
:100030000C943E000C943E000C943E000C943E0048
:100040000C943E000C943E000C943E000C943E0038
:100050000C943E000C943E000C943E000C943E0028
:100060000C943E000C943E0011241FBECFEFD8E04C
:10007000DEBFCDBF0E9440000C9463000C940000D2
:100080008FEF84B98CEF8AB983E08BB981E085B9B1
:1000900091E020E84899FECF499908C0000085B159
:1000A000813059F085B1869585B9F4CF85B1803816
:1000B00039F085B1880F85B9EDCF000025B9EACFB9
:0A00C000000095B9E7CFF894FFCFD8
:00000001FF
